{
  "_format": "hh-sol-artifact-1",
  "contractName": "menu",
  "sourceName": "contracts/crypto_menu.sol",
  "abi": [
    {
      "inputs": [],
      "stateMutability": "nonpayable",
      "type": "constructor"
    },
    {
      "inputs": [
        {
          "internalType": "string",
          "name": "food_url",
          "type": "string"
        },
        {
          "internalType": "string",
          "name": "name",
          "type": "string"
        },
        {
          "internalType": "string",
          "name": "country",
          "type": "string"
        }
      ],
      "name": "add_food",
      "outputs": [],
      "stateMutability": "nonpayable",
      "type": "function"
    },
    {
      "inputs": [],
      "name": "get_all_foods",
      "outputs": [
        {
          "components": [
            {
              "internalType": "address",
              "name": "owner",
              "type": "address"
            },
            {
              "internalType": "string",
              "name": "food_url",
              "type": "string"
            },
            {
              "internalType": "string",
              "name": "name",
              "type": "string"
            },
            {
              "internalType": "string",
              "name": "country",
              "type": "string"
            }
          ],
          "internalType": "struct menu.menu_items[]",
          "name": "",
          "type": "tuple[]"
        }
      ],
      "stateMutability": "view",
      "type": "function"
    },
    {
      "inputs": [],
      "name": "get_food_by_owner",
      "outputs": [
        {
          "components": [
            {
              "internalType": "address",
              "name": "owner",
              "type": "address"
            },
            {
              "internalType": "string",
              "name": "food_url",
              "type": "string"
            },
            {
              "internalType": "string",
              "name": "name",
              "type": "string"
            },
            {
              "internalType": "string",
              "name": "country",
              "type": "string"
            }
          ],
          "internalType": "struct menu.menu_items[]",
          "name": "",
          "type": "tuple[]"
        }
      ],
      "stateMutability": "view",
      "type": "function"
    }
  ],
  "bytecode": "0x608060405234801561001057600080fd5b50611015806100206000396000f3fe608060405234801561001057600080fd5b50600436106100415760003560e01c806326055edd14610046578063542e5b0214610064578063b0830c9d14610082575b600080fd5b61004e61009e565b60405161005b9190610a3f565b60405180910390f35b61006c610309565b6040516100799190610a3f565b60405180910390f35b61009c60048036038101906100979190610baa565b61070b565b005b60606000805480602002602001604051908101604052809291908181526020016000905b8282101561030057838290600052602060002090600402016040518060800160405290816000820160009054906101000a900473ffffffffffffffffffffffffffffffffffffffff1673ffffffffffffffffffffffffffffffffffffffff1673ffffffffffffffffffffffffffffffffffffffff16815260200160018201805461014b90610c80565b80601f016020809104026020016040519081016040528092919081815260200182805461017790610c80565b80156101c45780601f10610199576101008083540402835291602001916101c4565b820191906000526020600020905b8154815290600101906020018083116101a757829003601f168201915b505050505081526020016002820180546101dd90610c80565b80601f016020809104026020016040519081016040528092919081815260200182805461020990610c80565b80156102565780601f1061022b57610100808354040283529160200191610256565b820191906000526020600020905b81548152906001019060200180831161023957829003601f168201915b5050505050815260200160038201805461026f90610c80565b80601f016020809104026020016040519081016040528092919081815260200182805461029b90610c80565b80156102e85780601f106102bd576101008083540402835291602001916102e8565b820191906000526020600020905b8154815290600101906020018083116102cb57829003601f168201915b505050505081525050815260200190600101906100c2565b50505050905090565b60606000805b6000805490508110156103b6573373ffffffffffffffffffffffffffffffffffffffff166000828154811061034757610346610cb1565b5b906000526020600020906004020160000160009054906101000a900473ffffffffffffffffffffffffffffffffffffffff1673ffffffffffffffffffffffffffffffffffffffff16036103a357818061039f90610d19565b9250505b80806103ae90610d19565b91505061030f565b5060008167ffffffffffffffff8111156103d3576103d2610a7f565b5b60405190808252806020026020018201604052801561040c57816020015b6103f96107fd565b8152602001906001900390816103f15790505b50905060005b600080549050811015610702573373ffffffffffffffffffffffffffffffffffffffff166000828154811061044a57610449610cb1565b5b906000526020600020906004020160000160009054906101000a900473ffffffffffffffffffffffffffffffffffffffff1673ffffffffffffffffffffffffffffffffffffffff16036106ef57600081815481106104ab576104aa610cb1565b5b90600052602060002090600402016040518060800160405290816000820160009054906101000a900473ffffffffffffffffffffffffffffffffffffffff1673ffffffffffffffffffffffffffffffffffffffff1673ffffffffffffffffffffffffffffffffffffffff16815260200160018201805461052a90610c80565b80601f016020809104026020016040519081016040528092919081815260200182805461055690610c80565b80156105a35780601f10610578576101008083540402835291602001916105a3565b820191906000526020600020905b81548152906001019060200180831161058657829003601f168201915b505050505081526020016002820180546105bc90610c80565b80601f01602080910402602001604051908101604052809291908181526020018280546105e890610c80565b80156106355780601f1061060a57610100808354040283529160200191610635565b820191906000526020600020905b81548152906001019060200180831161061857829003601f168201915b5050505050815260200160038201805461064e90610c80565b80601f016020809104026020016040519081016040528092919081815260200182805461067a90610c80565b80156106c75780601f1061069c576101008083540402835291602001916106c7565b820191906000526020600020905b8154815290600101906020018083116106aa57829003601f168201915b5050505050815250508282815181106106e3576106e2610cb1565b5b60200260200101819052505b80806106fa90610d19565b915050610412565b50809250505090565b600060405180608001604052803373ffffffffffffffffffffffffffffffffffffffff16815260200185815260200184815260200183815250908060018154018082558091505060019003906000526020600020906004020160009091909190915060008201518160000160006101000a81548173ffffffffffffffffffffffffffffffffffffffff021916908373ffffffffffffffffffffffffffffffffffffffff16021790555060208201518160010190816107c99190610f0d565b5060408201518160020190816107df9190610f0d565b5060608201518160030190816107f59190610f0d565b505050505050565b6040518060800160405280600073ffffffffffffffffffffffffffffffffffffffff1681526020016060815260200160608152602001606081525090565b600081519050919050565b600082825260208201905092915050565b6000819050602082019050919050565b600073ffffffffffffffffffffffffffffffffffffffff82169050919050565b600061089282610867565b9050919050565b6108a281610887565b82525050565b600081519050919050565b600082825260208201905092915050565b60005b838110156108e25780820151818401526020810190506108c7565b60008484015250505050565b6000601f19601f8301169050919050565b600061090a826108a8565b61091481856108b3565b93506109248185602086016108c4565b61092d816108ee565b840191505092915050565b60006080830160008301516109506000860182610899565b506020830151848203602086015261096882826108ff565b9150506040830151848203604086015261098282826108ff565b9150506060830151848203606086015261099c82826108ff565b9150508091505092915050565b60006109b58383610938565b905092915050565b6000602082019050919050565b60006109d58261083b565b6109df8185610846565b9350836020820285016109f185610857565b8060005b85811015610a2d5784840389528151610a0e85826109a9565b9450610a19836109bd565b925060208a019950506001810190506109f5565b50829750879550505050505092915050565b60006020820190508181036000830152610a5981846109ca565b905092915050565b6000604051905090565b600080fd5b600080fd5b600080fd5b600080fd5b7f4e487b7100000000000000000000000000000000000000000000000000000000600052604160045260246000fd5b610ab7826108ee565b810181811067ffffffffffffffff82111715610ad657610ad5610a7f565b5b80604052505050565b6000610ae9610a61565b9050610af58282610aae565b919050565b600067ffffffffffffffff821115610b1557610b14610a7f565b5b610b1e826108ee565b9050602081019050919050565b82818337600083830152505050565b6000610b4d610b4884610afa565b610adf565b905082815260208101848484011115610b6957610b68610a7a565b5b610b74848285610b2b565b509392505050565b600082601f830112610b9157610b90610a75565b5b8135610ba1848260208601610b3a565b91505092915050565b600080600060608486031215610bc357610bc2610a6b565b5b600084013567ffffffffffffffff811115610be157610be0610a70565b5b610bed86828701610b7c565b935050602084013567ffffffffffffffff811115610c0e57610c0d610a70565b5b610c1a86828701610b7c565b925050604084013567ffffffffffffffff811115610c3b57610c3a610a70565b5b610c4786828701610b7c565b9150509250925092565b7f4e487b7100000000000000000000000000000000000000000000000000000000600052602260045260246000fd5b60006002820490506001821680610c9857607f821691505b602082108103610cab57610caa610c51565b5b50919050565b7f4e487b7100000000000000000000000000000000000000000000000000000000600052603260045260246000fd5b7f4e487b7100000000000000000000000000000000000000000000000000000000600052601160045260246000fd5b6000819050919050565b6000610d2482610d0f565b91507fffffffffffffffffffffffffffffffffffffffffffffffffffffffffffffffff8203610d5657610d55610ce0565b5b600182019050919050565b60008190508160005260206000209050919050565b60006020601f8301049050919050565b600082821b905092915050565b600060088302610dc37fffffffffffffffffffffffffffffffffffffffffffffffffffffffffffffffff82610d86565b610dcd8683610d86565b95508019841693508086168417925050509392505050565b6000819050919050565b6000610e0a610e05610e0084610d0f565b610de5565b610d0f565b9050919050565b6000819050919050565b610e2483610def565b610e38610e3082610e11565b848454610d93565b825550505050565b600090565b610e4d610e40565b610e58818484610e1b565b505050565b5b81811015610e7c57610e71600082610e45565b600181019050610e5e565b5050565b601f821115610ec157610e9281610d61565b610e9b84610d76565b81016020851015610eaa578190505b610ebe610eb685610d76565b830182610e5d565b50505b505050565b600082821c905092915050565b6000610ee460001984600802610ec6565b1980831691505092915050565b6000610efd8383610ed3565b9150826002028217905092915050565b610f16826108a8565b67ffffffffffffffff811115610f2f57610f2e610a7f565b5b610f398254610c80565b610f44828285610e80565b600060209050601f831160018114610f775760008415610f65578287015190505b610f6f8582610ef1565b865550610fd7565b601f198416610f8586610d61565b60005b82811015610fad57848901518255600182019150602085019450602081019050610f88565b86831015610fca5784890151610fc6601f891682610ed3565b8355505b6001600288020188555050505b50505050505056fea264697066735822122016dc2a0ba16e290c78ca2d87ab94875e87c6d8ddb469e7a31841b7f4f2e7da0364736f6c63430008130033",
  "linkReferences": {},
  "deployedLinkReferences": {}
}